S01B00006275696C642F72656C656173652F7A69676265652E73333714
S21400400008100020CD7C000061C40000CD0603002F
S214004010CD06030069C4000071C40000CD0603008D
S214004020CD060300CD060300CD060300CD06030033
S21400403075C40000084A0400CD060300CD06030040
S214004040CD060300CD060300CD060300E57700008D
S214004050CD060300CD060300CD060300CD06030003
S214004060CD060300CD06030075C90000CD0603008B
S214004070CD060300CD060300CD060300CD060300E3
S214004080CD060300CD060300CD060300CD060300D3
S214004090CD060300CD060300CD060300CD060300C3
S2140040A0CD0603009580000079800000CD06030051
S2140040B0CD060300CD060300CD0603005D1D0200FD
S2140040C0DF610300DB610300C1140200F561030039
S2140040D0E36103001D1D0200E761030051010200B9
S2140040E09D1D0200CD060300CD060300CD0603008D
S2140040F0CD060300CD060300CD060300CD06030063
S214004100CD060300CD060300CD060300CD06030052
S214004110CD060300CD060300CD060300CD06030042
S214004120CD060300CD060300CD060300CD06030032
S208004130CD060300B0
S214004134F0B5114A114C124E00F00105E3695F0711
S21400414413D40DB9334213D103EA00078F4207D1C3
S2140041540B4A1A40002A14BF6FF001000020F0BD7D
S214004164013AEBD16FF00200F9E74FF0FF30F6E7C3
S2140041746FF00100F3E700BF80969800000003503C
S214004184020001000B4B70B5D96911F480310DD1D2
S21400419401244FF48072084E084DF46020462C64C7
S2140041A41A61FFF7C5FF3464EC6070BD6FF0010060
S2140041B4FBE700BF0000035000100350002003502C
S2140041C438B541F6713301220C4C0021E569E363EE
S2140041D40B4B05F48035DA600223606121202361ED
S2140041E4FFF7A6FF10B92120FFF7A2FF0122054B17
S2140041F4DA600DB10023E36338BD00BF000003504E
S214004204001003500020035070B5134C6061E3693E
S2140042145B071ED40E4656F8043B8D18A361AE42C7
S2140042240BD10423002121202361FFF781FF58B915
S214004234BDE870402120FFF77BBF08210846FFF742
S21400424477FF10B10423236170BD56F8043BA361C5
S214004254E5E74FF0FF30F7E7000003502DE9F84399
S214004264154641F67132164B8946DF69DA63012238
S214004274064603F58053DFF8508007F48037DA608B
S21400428455B9284601220F4BDA601FB10022A3F568
S2140042940053DA63BDE8F88306F5005404EA08041C
S2140042A4A41BAC4228BF2C46494622463046FFF79C
S2140042B4ABFF0028E6D12644A1442D1BE0E700BF4F
S2100042C4000003500020035000E0FFFF45
S2140042D02DE9F04F4FF0FD0BC9B09A460DF11B09C2
S2140042E09DF8503108AFCDF80C90CDF808B0019786
S2140042F0059303890446009383790E4690464188C9
S2140043008288407812F076FA054650B10090A3886D
S214004310002062883A4912F0B1FD284649B0BDE84F
S214004320F08F99F800002FF0ACFA38B12846A38831
S2140043306288344912F0A2FD8D25EEE75A463946CA
S21400434099F800002FF045FA8346002851D0529B7A
S2140043501BB1BDF84C3198424BD8002399F8009019
S2140043600793A9F14102012A5FFA8BF123D8384658
S2140043700139254ADFF898C05FFA81FE734513DBE2
S214004380059B04210792C3B907AF18221F489FED6B
S2140043901A7B02FB060420460A460830394684ED9E
S2140043A0027B17F093FA11E010F8011F0133514019
S2140043B00CFB01F2E2E7059B33B123464A4638463A
S2140043C0009610F099F9A8E70829DED9B8F1000F91
S2140043D001D088F80090BAF1000F01D0AAF800B01A
S2140043E0529B002B99D05A46184608A917F06EFA29
S2140043F093E7012591E700BF0000000000000000E1
S214004400DCF2030011F30300C59D1C818010002020
S21400441093010001000000002DE9F04F93B0CDE9B4
S2140044200A32DDE91C530E9353EC102BCDE908013C
S214004430104619468DED060B1E9E16F0D1FC80B177
S214004440DDE906014FF0FF32C54B16F0F1FC40B92E
S214004450DDE906014FF0FF326FF4801316F0CAFC58
S21400446070B1DDE908019DED060B0E9B1E96CDE9A9
S2140044701C53DDE90A3213B0BDE8F04F00F088B9EE
S2140044800022DDE90601002316F0B4FC002800F047
S2140044903381DDE906A303F1004BCBF30A5016F493
S2140044A08063A0F2FF3008BF06250F9316F0C6F90A
S2140044B09BA3D3E9002316F02BFA9BA3D3E9002392
S2140044C016F070F8CBF31304894644F07F5180460B
S2140044D00022A44B504641F4401116F061F894A314
S2140044E0D3E9002316F014FA02460B464046494626
S2140044F016F058F816F0A6FC044616F09FF98EA3A0
S214004500D3E900238046894616F002FA0022964B2D
S21400451016F048F816F096FC89A3D3E90023074660
S2140045204946404616F0F4F980463846894616F065
S21400453085F985A3D3E9002316F0EAF902460B466F
S2140045404046494616F02CF802460B46CDE90C23A9
S21400455016F0DEF9DDE90C2380468946104619463A
S21400456016F020F80022CDE91001804B404649465F
S21400457016F0F8FA00227E4B16F014F802460B46A8
S2140045804046494616F0EEFA00227A4B16F00AF834
S21400459002460B464046494616F0E4FADDE90C238F
S2140045A08046894600204FF0804115F0F9FF02460C
S2140045B00B464046494615F0F5FF02460B46DDE938
S2140045C0100116F0CFFA07F2FF3700226A4B15F0FB
S2140045D0E9FF00223B0516F09BF952465B468046F3
S2140045E0894616F025FC002840F08980CDE90C8924
S2140045F004F16303C62B8CBF0527042731051BD5A2
S21400460053A3D3E900235046594616F007FC00286A
S2140046107FD051A3D3E900235046594616F0EAFB53
S214004620002876D00027A542C6BF2C1B04F1FF3514
S21400463000253C4646F480660E9B9F422CBF4FF0FA
S2140046400008A3EB070816F0020903D0002F18BFD6
S2140046504FF000083CB1DDE90C235046594616F0F1
S21400466081FA82468B46DDE906010022002316F019
S214004670C1FB10B10BF100439B46DDE9080126F4AF
S2140046800063CDE90183DDE90A324BEC10AB0095FF
S21400469000F07EF802465FB3DDE9091316F0200F3E
S2140046A000F10105089E0CBF65204520B047DDE9F6
S2140046B008010523002205930A23002CCDE90232C7
S2140046C007F1FF374FEAD473B8BF64422A46019316
S2140046D004970A9B009430F0F0FE0246B9F1000FF2
S2140046E006D00B9BC41A0B9B1A190E9BA34245D8E7
S2140046F0104613B0BDE8F08FDDE906ABCDE600222C
S214004700404649461A4B16F02DFA013CCDE90C01FD
S2140047106EE7002D90D00F9B002B8DD0013D8BE7D0
S214004720FB799F501344D33FB3C8608B288AC63F9B
S21400473061436F63A787D23F71A379094F930A40FD
S2140047401655B5BBB16B0240EF39FAFE422EE63F76
S2140047502D431CEBE2361A3F0000000080842E41F9
S214004760FFFFEF7F0000F83F0000E03F00002C4016
S21400477000002440000018400000F03F2020DDE943
S2140047800913089DA8470134ADE700BF00000000EC
S2140047902DE9F04F5BEC10AB97B0CDE90501DDE9F4
S2140047A02058CDE90723504652465B465946229F7D
S2140047B016F016FB70B90323CDE902870193AA4BC6
S2140047C00093DDE90501DDE9072330F0A8FD17B009
S2140047D0BDE8F08F4FF0FF326FF480135046594615
S2140047E016F008FB28B10423CDE9028701939F4BFE
S2140047F0E6E74FF0FF32504659469D4B16F018FB41
S21400480068B19C4A07F00403002B08BF03229A4BAA
S2140048101CBF13460422CDE902870192D0E750461A
S2140048208DA3D3E90023594616F002FB38B98CA3B2
S214004830D3E900235046594616F0DCFA68B1DDE9A4
S2140048400723DDE905014BEC10ABCDE92187209568
S21400485017B0BDE8F04FFFF7DFBD0022002350463B
S214004860594616F0C7FA002800F091805B4652467B
S2140048700020002115F094FE012382468B46099302
S21400488017F4806400F08580092D40F285800024AE
S21400489030210EABA5F109020134202C03F8011BD0
S2140048A0A5EB040901D09442F6D15946504616F0BD
S2140048B0C9FA724B054603EBC90393ED007B8DEDF9
S2140048C00A7B15F0BBFF02460B465046594615F0CC
S2140048D067FEDDE90A2316F01BF802460B46CDE913
S2140048E00C2316F0D7FA064615F098FF02460B463C
S2140048F0DDE90C0115F054FE02460B46CDE90C230B
S21400490000225F4B16F094FA002848D00136304655
S21400491015F084FF02460B46DDE90A0116F074FA2C
S21400492008B100260135B9F1000F45D1284615F02B
S21400493085FF02460B465046594615F031FE0022CA
S2140049404F4B16F057FA10B9E90700D501350A2182
S2140049500EAB1A19202C0AD095FBF1F001FB10556E
S214004960303502F8015B013405460028F2D107F025
S2140049700302012A55D1B8F1000F52D0099A12B994
S21400498017F00C0F01D008F1FF38302240E00990F4
S21400499076E74FF0060988E7A946002485E7002257
S2140049A0DDE90C01364B16F025FA0028BBD10EB116
S2140049B0F007B8D50136B6E70A210EAB1A19202C37
S2140049C00DD0B6FBF1F001FB1063092E03F13003A6
S2140049D009F1FF3904F1010402F8013B11D8302136
S2140049E0A1440EAA202CB2D04C4504F101030AD1F2
S2140049F004F158020DEB02042E2204F8202C1C466B
S214004A00A5E70646DBE7A1541C46EBE71A5501343A
S214004A10444506D2202CF9D1CDE9028701940EAB8D
S214004A20CEE6202CF8D0099B3BB12D2204F158038A
S214004A306B4403F8202C0134EEE77A0704D504F122
S214004A4058032B226B44F4E73B07E5D504F15803E3
S214004A5020226B44EDE700BF0000000065CDCD418D
S214004A600000000065CDCDC1FF0F04000310040058
S214004A70FFFFEF7FF60F0400FB0F04004059040011
S214004A800000E03F0000000070B58EB02C22002130
S214004A9003A816F08BFD64234FF002320893CDE98D
S214004AA005230B2301218DF834305B4B8DF8101055
S214004AB01D880D4040F0A980084634F059FD0A22B2
S214004AC0564B574C1A704FF42873ADF812304FF00F
S214004AD0FF332360534B54491B8820460B82534BAD
S214004AE0534A1B68CD828B61524B0D621B884B82EA
S214004AF0514B1B68CB611DF0C7F920B14FF41B71F9
S214004B004E4835F0D0FD0521206830F0C9FE20B1B2
S214004B1040F27D21494835F0C6FD206815F0FCFCC2
S214004B20474B2068196830F07EFF0C2535F088F971
S214004B306843099035F084F968430DEB050107904A
S214004B40206817F0F5FB20B140F295213B4835F080
S214004B50AAFD25681FF0D0FB00220146284630F04B
S214004B60DAFF20B140F29721344835F09CFD40F240
S214004B700353344D344E2B80052396F90000AB705A
S214004B807F2801D11DF076FA3378EB7035F058F9AE
S214004B9000EB80008000A88035F052F90023C000AA
S214004BA04FF0FF31E880AB604FF0FF3018A3D3E939
S214004BB0002334F02FFE2549206830F065FF20687A
S214004BC002A931F081FB20B14FF434711B4835F057
S214004BD06AFD042220680DEB020130F0F9FE04287D
S214004BE004D040F2D721154835F05DFD01A901201B
S214004BF030F0FAFA07F078FC01201DF0BFFE2CF02A
S214004C005DFB1DF0E5FE1DF0CDF90EB070BD00BFDA
S214004C100A0020FF42030000FE5900202B610020FE
S214004C2024540020EE720400DC670020F4720400B6
S214004C3099950300EC720400F0720400C848040062
S214004C402465002018540020B26A00200D96030048
S214004C500348044B834202D0034B03B11847704706
S214004C60E06A0020E06A002000000000064B0749CA
S214004C70C91A891048BF0131491003D0044B0BB143
S214004C8001481847704700BFE06A0020E06A00202D
S214004C900000000010B5064C237843B9FFF7D8FF94
S214004CA0044B13B10448AFF300800123237010BDFA
S214004CB0B0150020000000007496040008B5044BF0
S214004CC01BB104490448AFF30080BDE80840CDE7B7
S214004CD000000000B415002074960400A3F5803A86
S214004CE0704700BF154B002B08BF114B9D46FFF7C2
S214004CF0F5FF00218B460F461148124A121A16F08D
S214004D0055FC0C4B002B00D098470B4B002B00D0CB
S214004D1098470020002104000D000B4816F08CFF79
S214004D2016F01CFC200029002BF0ECF916F072FFA0
S214004D30000008000000000000000000081000202E
S214004D400810002080610020A1BC010007B50121E9
S214004D5020200DF1070201F037F858B10223012197
S214004D6020200DF107028DF8073001F03DF803B062
S214004D705DF804FB9DF807100229F8D002220948C6
S214004D8015F002FB022301210DF1070220208DF809
S214004D90073001F029F82BF00FF94FF4FA6000F015
S214004DA05DFEE4E7C8AA030038B501F0E7FF01F0AE
S214004DB0A9F9012805D001F0A5F9022801D001F0D3
S214004DC0C7F9064D2B783BB901F09CF9012804463B
S214004DD002D12BF07AF92C7038BD00BFDC5A0020C7
S214004DE010B5044600882BF0BBF8A37884F844007E
S214004DF0834202BF0123E3702371074B04F11C00BA
S214004E00C4E9073401F036F8224620880349BDE895
S214004E10104000F073BF00BFF7FC0200C1FC0200A8
S214004E2070B5C37804460D461646002B34D1D1B172
S214004E30214815F0A9FA0123E370E36CA6600BB1D4
S214004E40E06D9847E368F61A63699E4221D2217E98
S214004E501A480131C9B2217615F096FAA36D13B13E
S214004E60217EE06D9847E5702BF0B9F815B32379ED
S214004E7003BBA268238A801A83421BD801231048EA
S214004E80237115F081FA236DA3B1E06DBDE8704083
S214004E90184701232376E6E70029E4D1094815F0F0
S214004EA073FA636DE660E5702571002BDBD0E06D6C
S214004EB09847D8E770BD00BFF0AA030001AB030017
S214004EC02FAB03001CAB030070B51E468388044658
S214004ED00D46C18002810BB1868070BD8178008846
S214004EE02AF02AFF0123E370064BA680C4E90334A8
S214004EF00C34204600F0BEFF29462046BDE8704030
S214004F002BF064B843FD020010B501790446B1FAEF
S214004F1081F1008849092AF086FF21796088B1FA74
S214004F2081F149092AF07FFF034B1A68A24204BFA9
S214004F3000221A6010BD00BFCC15002070B5437962
S214004F400446A3B100880E4E04F10805336813B179
S214004F500C4B1B786BB121792AF065FF64210A4B54
S214004F603460A3602846BDE870402BF02FB8408818
S214004F70E9E7064815F008FA054B3221A360F1E789
S214004F80CC150020DD5A0020094F000045AB030079
S214004F903D4F000010B50446E0B10F4815F0F4F997
S214004FA001236371A37953B9217920882AF03BFF46
S214004FB0236B7BB1606B0121BDE81040184720468B
S214004FC0FFF7A2FF04F108002BF005F82046FFF7D4
S214004FD0B5FFEDE710BD00BF7BAB030010B5044680
S214004FE0F8B1104815F0D0F900236371A3796BB9B6
S214004FF021792088B1FA81F149092AF014FF236B40
S2140050007BB1606B0021BDE8104018472046FFF7D3
S2140050107BFF04F108002AF0DEFF2046FFF78EFF34
S214005020EDE710BD86AB030010B5044668B107482F
S21400503015F0AAF9637920461BB1BDE81040FFF7CA
S214005040CDBFBDE81040FFF7A5BF10BD92AB030073
S21400505010B50E4C0E48214615F096F982210D48E3
S21400506015F092F982210220A21E00F0BDFE014634
S21400507030B134F8022C0848BDE8104015F084B969
S2140050800648BDE8104015F07FB900BF6A550020FD
S214005090A1AB0300BCAB0300C7AB03000BAC030023
S2140050A038B5114C82212246022000F08DFEA51C48
S2140050B0014688B122880D4815F066F92A460C4B41
S2140050C003F1380153F8040B8B4242F8040BF9D174
S2140050D01B7813703823238035F8021C054A0648CF
S2140050E0BDE8384015F050B96855002016AC0300EE
S2140050F096AC03006A55002074AC0300034B1B7883
S2140051001BB18B4201D82AF057BF7047586A00205F
S21400511010B5044601460E4815F036F9012C11D19B
S2140051200C4B0D481A884FF6FF739A421EBF00229A
S214005130094B5A742AF05DFE01F076FFBDE8104078
S21400514001F048BE0448BDE810402AF054BE00BF37
S214005150CFAC03000C6A0020B064002070B50024B9
S2140051601A4D1B4E3378A3421BDC0024194D1A4EF1
S2140051703378A3421BDC0024184D194E3378A34223
S2140051801BDC00F0BFFF012816481CD12AF031FEB8
S21400519001F04AFF01F01EFEBDE87040124800F024
S2140051A0D1BF2846FFF71CFE01346035DAE72846F3
S2140051B02AF005FE01343435DAE728462AF038FEB0
S2140051C001343835DAE72AF016FEE5E778210020C4
S2140051D0E35A002098250020E45A0020481F0020AB
S2140051E0E25A0020B0640020115100002DE9F04F73
S2140051F087B0FFF755FFB94B05A805932AF03CFE8C
S214005200054616F0CFF8B64CC2B21F2A627004D913
S214005210B44815F0B9F800F015FC2946A01C16F0A5
S21400522055FB05A82AF028FE054616F0BBF8C2B2C4
S2140052301F2A84F8212001D9AB48EAE7294604F161
S214005240220016F043FB05A82AF016FE3226044676
S21400525000272578002D40F09F80A44CFFF77EFFA6
S2140052602378DFF8C8A2DFF8C882A14F00939AF827
S214005270003098F8002039789E4815F085F83A787E
S21400528098F800109AF8000053180344DFF894B218
S21400529020782C4603445846DBB2AA4200F3E48248
S2140052A0012B38BF0123944E029332460023354625
S2140052B04FF482714FF6FF740298013398421370D0
S2140052C05180948002F10C02F6DC8C4B8A498448AB
S2140052D0AB6000F0F3FFE879AB68DFF8449200EBD0
S2140052E0400003EB800000F0B9FDEB79B9F8002030
S2140052F00133A242EB7103D07F49814801F0E0F808
S2140053004FF6FF73B9F800207B49D21A18BF012266
S2140053107C4801F09FFC4FF00009784C3A784A45EB
S21400532000F3CA8200264FF00C09774ADFF8C8B1AE
S21400533098F800003978B04200F3D28246180C2163
S214005340002501FB06B19AF800009423A8426F4A94
S21400535000F3E4820C253E7898F8003000274FF0E2
S21400536070081E44064405FB06B5DFF8C8A15F4B6F
S2140053701B78BB4200F3E58202995F4800F0FCFD13
S214005380059B56491A468B4240F0EE82604807B0AD
S214005390BDE8F04F14F0F8BF532D0FD163784C2BB7
S2140053A040F04881A378502B40F044810122594BAD
S2140053B01A7005A82AF060FD04464AE7442D13D16A
S2140053C06378303B092BF4D8601C2AF062FD524B00
S2140053D0524A1978002386B2994202F16002E8DD4B
S2140053E022F8466C0133F7E7422D0BD16378542B35
S2140053F054D1A01C00F0D0FC494B188018462AF067
S2140054003CFCD6E7582D33D8412DD2D9433D152D37
S214005410CFD801A353F825F0D7570000B3530000A8
S214005420B3530000B3530000B3530000B35300005F
S21400543087550000B3530000B353000039550000F1
S21400544083540000B3530000B3530000B35300006E
S214005450B3530000B956000035560000B3530000A1
S214005460B3530000B3530000B35300002F5700009F
S214005470692D9ED1601C2AF00CFD80B22AF098FDA2
S21400548097E71B4B012019780023264A994202F120
S214005490A8028EDD02F8A60C0133F7E7601C00F0C8
S2140054A07BFC0546E01C2AF06CFD012102462846DE
S2140054B02AF023FD60211848184C037859436218D7
S2140054C065524FF4FA6111824FF4487151611649E2
S2140054D056831165013303706BE700BF6A550020E1
S2140054E0C4630020EEAC030005AD0300DE5A0020C6
S2140054F0E15A002015AD0300981600201017002072
S21400550048160020D01500209C1B0020E019002023
S21400551065AD0300DD5A0020E35A00207821002004
S2140055200C6A00209C1C002063FE0200DF5A00204C
S214005530E05A002090180020601C00F02DFC00228D
S2140055404FF034088146CC4F11462AF0D6FC387806
S214005550CA4D08FB00F325F80390EA18E3781046D6
S214005560693B18BF012393702AF029FC0021C44A26
S2140055703B785160012103FB08550B443B701560D6
S2140055800F46117415E7601C00F006FC0022114659
S21400559081462AF0B2FC3422B74DDFF8E082287844
S2140055A002FB00F328F8039008EB0301E3780846B3
S2140055B0693B18BF01238B702AF001FCB14A002317
S2140055C01046916B31BB00EB831034232A7802FB24
S2140055D003838363AC4A00231046D2F8A410F9B9BB
S2140055E0A82202FB030034232A7802FB0383C0F8B8
S2140055F0A4305FB9A24A3B46114652F8040BA8B93C
S2140056003422287800FB028241F823202B780133CD
S2140056102B70CEE60133042B02F14002D1D1D9E73C
S2140056200133042B02F1A802D7D1E2E70133042BA1
S214005630E3D1EBE7601C00F0AFFB8046E01C2AF0ED
S214005640A0FC0121024640462AF057FC60218F4804
S2140056508F4D0278DFF854C251436B1825F801804D
S2140056604FF44871198259618A495E839965E178D9
S214005670A824642904BF012199709CF80030DFF843
S21400568008E25C430EEB04010EF804304FF400749D
S2140056904C8003240C718C7102EB420405EB44151C
S2140056A032240133DBB201324B718D6081F8A040A9
S2140056B002708CF800307CE6601C00F06DFB002267
S2140056C04FF0380A8146DFF8DC8111462AF015FCD7
S2140056D098F80030704D0AFB03F325F803904FF05E
S2140056E00109EA1882F80490E37873B1E01C00F030
S2140056F053FB0022044611462AF0FFFB98F80030C0
S2140057000AFB03535C8083F8069064485D4A03787E
S2140057109901535498F8001002EB8314C1EBC102B0
S21400572005EBC2054A1C656388F80020D2E6601CBB
S21400573000F032FB8046E01C00F02EFB0546601DA4
S2140057402AF01FFC04460246012140462AF0D5FBFB
S2140057502246284601212AF0D0FB60204FF4487CE0
S214005760DFF828E14A4A9EF8003000FB03F422F8EE
S2140057700480DFF820811119A1F810C0C1F814C008
S2140057804E83C1F85880591CC9B248431418A4F86F
S21400579010C0C4F814C06683C4F858809424155208
S2140057A03F4D981C8EF800002878DFF804C144436B
S2140057B003EB430301EB41010CEB040E02EB431336
S2140057C002EB41120CF80400CEF80430CEF80820A4
S2140057D001302870EDE5601C00F0DEFA8046E01C23
S2140057E000F0DAFA00220546114640462AF085FB0C
S2140057F000223824114628462AF07FFB2948264AEC
S21400580003784FF0000E04FB03FC22F80C804FF0E8
S214005810010802EB0C0181F806E081F8048003EB36
S2140058200801C9B24C4302EB040C15539C1C0470CF
S21400583070241D4D8CF806E028788CF804804443CC
S214005840DFF870C0C3EBC303C1EBC1010CEB040E61
S21400585002EBC30302EBC1020CF80400CEF80430DE
S214005860CEF808204044B4E7467901358E4284BF1E
S21400587004714471A83010E5E45A002098250020F1
S214005880B06400209C1B00209C1C0020E35A0020D3
S21400589078210020FD500000481F0020E05A00201C
S2140058A0DF5A0020E25A0020DE5A0020E15A00208B
S2140058B0E019002090180020B9F1000F06D016F865
S2140058C0052C02EB420204EB8204B46031465846D3
S2140058D001F07EFD09F101090BF1A80B0C361DE560
S2140058E071180AD0481E09FB00B0C07900EB4000D2
S2140058F004EB800409FB01B08460104609FB0151EB
S214005900039201F023FB39781C48314409FB01510E
S21400591001F08AF8039A0136403209E5F54218BFCD
S21400592011F8050C03911EBF00EB400004EB800449
S2140059308C6003FB052000F087FF039901350C31CE
S21400594001E5F74218BF15F8053C29461CBF03EBD6
S214005950430304EB830408FB07A018BFAC6000F009
S21400596049FE01370C3502E513F8011D00297FF4C6
S21400597008AD3B2102F8011C03E500BF3C1F0020D8
S21400598007B5012121200DF1070200F01DFA18B914
S2140059909DF80720024B1A7003B05DF804FB00BFA9
S2140059A0586A002007B5064B8DF8070018700121CD
S2140059B00DF10702212000F017FA03B05DF804FB92
S2140059C0586A002007B5022101200DF1060200F0FA
S2140059D0FBF938B9044814F0D7FCBDF8060003B04C
S2140059E05DF804FB0020FAE782AD030007B502214C
S2140059F0ADF806000DF10602012000F0F5F90146AB
S214005A0010B1034814F0C0FC03B05DF804FB00BFFF
S214005A10A3AD030010B5FFF7D5FF044601460748BF
S214005A2014F0B2FC0121064814F0AEFC24B9BDE81F
S214005A3010400120FFF7DABF10BD00BFD3AD030052
S214005A40E5AD030008B5044814F09EFC00F0DCF950
S214005A502AF0B2FA2AF0ADFAFBAD030038B50446D8
S214005A60084D094B28462B6000F004FA002C18BF9E
S214005A7021462846BDE8384008BF4FF496712AF004
S214005A80A5BA00BF9C260020B1FE02002DE9F04317
S214005A90384D91B008AC0746894690460FCD0FC4E6
S214005AA095E80F00002684E80F0001250323324CFA
S214005AB03248CDE90366CDE905668DF80E300796C7
S214005AC0029534F099FD2E4834F096FD32462D4965
S214005AD020468DF8176004F0A3FD334632462A4967
S214005AE08DF81900009020468DF82390CDF82C8074
S214005AF08DF8216004F0AEFD0A9020468DF80970FE
S214005B0004F010FD204608AA05A904F0C9FD02AA63
S214005B10204603A92BF02EFB4FF400721B4B5A6253
S214005B20194BE560626A920510D46BB94FF40072A7
S214005B30164B11485A6204F0F5FC114834F05FFD2C
S214005B40002011B0BDE8F083013BEBE7002BEDD061
S214005B50094908A82BF041FB4FF400720B4B06488E
S214005B605A6204F0DFFC064834F049FDBDF8200018
S214005B70E7E700BFC04904000040005A684C040034
S214005B80644C040080841E0040420F000060005AEF
S214005B900122034B1870034B1980034B1A70704791
S214005BA0E65A0020146A0020E55A0020F8B5454B56
S214005BB01B780BB90020F8BD434B1B78012B03D193
S214005BC0BDE8F8402AF077B9404B1C884FF6FF73C3
S214005BD09C42EFD03E4834F00FFD0023260AE4B284
S214005BE01A462146304604F05DFC012E354604F088
S214005BF0010335D015D9B51E012DDBD8002B0BBF00
S214005C004FF480754FF080754FF470614FF07061FF
S214005C100BBF01274FF480370F204FF470202D4B19
S214005C2011E0002B0BBF4FF480754FF080754FF4DA
S214005C3070614FF070610BBF01274FF480370F2063
S214005C404FF47020244B1A6802401CD0BA421AD077
S214005C501A680A4032D11A6822EA01022A4316E07C
S214005C60002B0BBF4FF480754FF080754FF47061BA
S214005C704FF070610BBF01274FF480370F204FF4B1
S214005C807020164BDFE71A6822EA00023A431A60D1
S214005C902AF011F9054600288CD0083644EA06108A
S214005CA02A460321C0B2FFF7F1FE40F6FF736843B1
S214005CB000F2FF70B0FBF3F080B27CE795427FF411
S214005CC079AFC8E7E55A0020E65A0020146A00209B
S214005CD0684C040028C3035020C3035024C3035059
S214005CE010B5044C237823B9034834F085FC01230F
S214005CF0237010BDE85A0020684C04002DE9F043DC
S214005D001F4C85B0074688469146FFF7E9FF237883
S214005D101BB902F077F8012323707BBAADF80C307C
S214005D2030220023174E02FB03F4315DA51901BB98
S214005D30012333554FF0FF3304F11000124930446D
S214005D40AB606F80C5F80480C5F80C9009F0ECFADB
S214005D5004F10801042231440C4B009503A802F01C
S214005D6027F9A96802460A4814F00EFB05B0BDE8FC
S214005D70F0830133102BD6D1064814F005FBF5E767
S214005D80E75A0020C4260020DBFE0200EDFE0200DB
S214005D9008AE030036AE030080B10278A2F14103DC
S214005DA0032B0BD840783038C0B2082806D8054BED
S214005DB0134413F8413C40EA032070474FF6FF7047
S214005DC0704700BFE049040008B50B4642B10146E3
S214005DD00448006803F030FABDE808402AF0E2B84C
S214005DE0022008BD1C65002008B50B4642B10146DE
S214005DF00448006803F0A8FBBDE808402AF0D2B8C3
S214005E00022008BD1C650020F0B50026124F8DB09C
S214005E10FF2300930A223346386802A92AF067FF58
S214005E20C0B102AB1D4603EB800404E055F8043B0A
S214005E30B34228BF5E1CAC423868E9D9296803F033
S214005E4009FD0028F2D02D28F0D00DB0BDE8F040B6
S214005E502AF0A8B80DB0F0BD1C65002028B1034B91
S214005E600360034B43600023836070471900000300
S214005E70C4640020FF2307B50021044A00930830BD
S214005E8009F0D6F903B05DF804FB00BFC7FF0200B7
S214005E900B460449024608680349097808B12AF007
S214005EA0B9B87047D0290020EA5A0020F7B50C464A
S214005EB018B12921194834F0F6FB246823685E7966
S214005EC05F8830463946FFF7E3FFF0B18568E5B1F5
S214005ED0A089227D3946904291BF0020801AA3688F
S214005EE080B294BF03469B18E27C00903046A847D9
S214005EF00138032803D8DFE800F0080F0B0D002454
S214005F0020462EF026FA204600E0812003B0F0BDA1
S214005F108024F5E79324F3E78724F1E75EAE0300D9
S214005F20F8B515460D4A044610680D4A0B4611781A
S214005F3050B122462AF06EF8034628B100210C27FD
S214005F40C678B14201DB0020F8BD07FB01F45A68B1
S214005F501019125BAA42F7D00131F2E7D0290020CF
S214005F60EA5A002008B5034B1B6803B19847002087
S214005F7008BD00BFCC2900202DE9F74F04460D468A
S214005F800026454B454F1860454B197033010021DC
S214005F90F85C013610F01CFA0C2EF7D10C2D28BF39
S214005FA00C254FF0000901953C4EDFF800A13D4D51
S214005FB0DFF8FC80019B4B4502DC03B0BDE8F08FA8
S214005FC023784FF0000B337063887380A388B38008
S214005FD0A379C6F80880B371E379C8F8005088F84A
S214005FE004304FF00003A768A8F80630E3795B4555
S214005FF00ADC012116F8100B10F0EAF908F108087F
S21400600009F101090C34D5E74FF0000338886B819D
S2140060102880FB784FF0000C2B81BA78C5F804A0D6
S214006020002A00920CBF802240222A7379680AF167
S2140060300C02634513DC03EB43030AEB830ABB68DD
S21400604043B1009A4FF6FF71B2FA82F2164B52092C
S2140060502EF00FF914350BF1010B0C37C6E7B1F82B
S21400606000E00CF1010C22F80CEC91F802E00C3286
S21400607002F816EC91F804E00C3102F815EC11F871
S21400608009ECBEF1010F14BF4FF0100E4FF0110EC9
S21400609002F814ECCDE700BFD0290020084100200C
S2140060A0EA5A0020D42F0020AD5E0000D42900203C
S2140060B054320020014B1860704700BFC8290020EA
S2140060C0014B1860704700BFCC29002070B51288BD
S2140060D005460E46FFF724FF044670B10279049980
S2140060E0806815F0B5FA064B1B680BB9002070BD2A
S2140060F03146284622889847F8E78620F7E700BF0B
S214006100C829002008B50FF0FFF9022806D001289C
S21400611006D0044B18784000C0B208BD0120FCE74A
S2140061200220FAE7E95A0020054B10B51C682CB18E
S214006130FFF7E8FF2346BDE81040184710BD00BF34
S214006140C4290020014B1860704700BFC4290020F6
S214006150034B1A781AB901221A700BF035BA704739
S214006160E95A00200022024B1A70FFF7DDBF00BF7D
S214006170E95A002037B50446002836D00FF0C4F997
S214006180022834D160892EF046FCE079237A003864
S21400619018BF0120012B637A08BF40F008000BB13E
S2140061A040F0100063890BB140F00400257CA18804
S2140061B0A2790DB1E36893B90F4B10F0E5FC217896
S2140061C0084610F05DFD2DF04FFF044610F016FD5A
S2140061D07CB100280CBF0020032003B030BDCDE901
S2140061E00035064B10F0D0FCE9E70220F5E7012069
S2140061F0F3E72046F1E700BF29FF0300F2CE0300D5
S21400620008B50DF03FFB014630B1044814F0BCF869
S214006210BDE808400DF0DABE08BD00BFD0AE0300F2
S214006220034B044A5B7C012103201370FFF7DCBD9F
S214006230B0640020EB5A002010B50446FFF7F0FFCC
S214006240B4F57F4F0BD100240F4B1A8813449C7073
S214006250FEF7FEFE2046BDE81040FFF7FFBB4FF6F8
S21400626001739C4204D1BDE81040084829F0A9BD3E
S2140062704FF602739C4205D1BDE81040044B1878D7
S214006280FFF790BB10BD00BF68550020B06400202B
S214006290586A002010B5074C012122460320FFF75C
S2140062A093FD28B92378044A003B18BF0123537492
S2140062B010BD00BFEB5A0020B0640020F8B5564B66
S2140062C0564C1A884FF6FF739A4218BF03234FF0B6
S2140062D0080218BF2370524B32251A7030229A706B
S2140062E05A71DA7137225D70DD7036251A724FF4F6
S2140062F000121D719D714B4D4264C5644A4D0122CA
S21400630005654A4D86188565494DC667C565494D7C
S214006310494E4566494D80F848208566484D80F8C8
S21400632054200567474D80F860204567202580F893
S214006330785080F8845000F12105C0F88850424D0E
S21400634080F86C20C0F88C50C0F8806080F89020F0
S214006350C0F89440C0F8B8303C4B3D4CC0F8BC3058
S2140063600223C0F898403B4C80F8C030C0F8A440E8
S2140063700F24394B80F8A840C0F8C430374B384C4F
S214006380C0F8C8308223C0F8AC40364C80F8CC3019
S214006390C0F8B0400924344B344DC0F8D030344BEC
S2140063A080F8B440C0F8D4302C7C324B80F89C2067
S2140063B0C0F8A00080F8D820C0F8DC3044B12E4BDE
S2140063C080F8E420C0F8E03005F11103C0F8E830AA
S2140063D04FF0000CCA798E6802EB42039F004430EF
S2140063E006EB830326F807C0586001200D3498702A
S2140063F0DC701318CB71FFF7C3FAFFF74BFFFFF7FC
S21400640081FE012806D12B7C23B1BDE8F840174851
S21400641029F0D7BCF8BD00BF0C6A0020596A0020DE
S214006420EC5A0020F949040001002000F849040055
S21400643002002000F7490400050042000300200087
S214006440F64904000400420007003000FDFF21006A
S2140064501200100100404200F449040000FF44010D
S214006460E44904000600420068550020B06400209D
S21400647002FF2001586A002001FF100113B50446F0
S2140064800D4829F005FC6422C0F30F43637083B205
S214006490B3FBF2F3A07823702022012129F0DCFD63
S2140064A0A0782122012129F0D7FD0449201D02B041
S2140064B0BDE8104029F08ABD0C6A0020E093040075
S2140064C00B7870B583704CF61E0303804FF02013D4
S2140064D0C362012380F8303080F83C30C318036470
S2140064E0124B044643640223114A80F84830114B8D
S2140064F08263C3644063CA798D6802EB420305EB8E
S214006500830004F12C0646600B4E45F823600023FA
S2140065108360531CCB71094B201DC4E90134FFF77F
S214006520A9FC2046BDE87040FFF7A8BFFDFF21008C
S21400653021002000FA490400010001037D640000E8
S214006540437B044A0121137000781130C0B2FFF774
S2140065504BBC00BFF65A002038B504460078054DFF
S21400656011302A460121C0B2FFF72EFC08B92B785D
S214006570637338BDF65A0020024B53F8200029F00A
S21400658046BE00BFB4320020012908B506D0022955
S21400659007D049B929F032FE002008BD29F031FEA7
S2140065A0FAE729F031FEF7E7024813F0EDFE012086
S2140065B0F3E700BFFDAE030010B4054C114654F8D7
S2140065C020001A46BDF804305DF8044BFFF7DCBF28
S2140065D0B4320020002310B5044683810364A0F87B
S2140065E044304830FFF746FC014BC4E9123410BD76
S2140065F0F501030038B504460B781A4A43700D4679
S21400660042F82300FFF7E6FF2046FFF7A5FF4FF40A
S214006610401323610123144A2375A261134A84F8A8
S2140066202030E261124A84F82C306262114A84F803
S2140066303830A26204F10C0222630F4A04F10D0303
S2140066406263E363EA79A86802EB420300EB830126
S21400665010344C60094C40F82340094B8B60531CA7
S214006660EB7138BDB4320020F55A00200800200037
S2140066705A6A002000FF300001FF100102010104E9
S214006680B965000010B47024427B0D48013A012918
S21400669004FB020006D0022908D059B95DF8044B65
S2140066A029F0ACBD5DF8044B29F0ABBD5DF8044B9A
S2140066B029F0AABD03485DF8044B13F065BE00BF81
S2140066C09018002019AF0300B0F85C302DE9F041B7
S2140066D08B4204460E4638D0437B077C8BB31C4A5D
S2140066E012789A422DD370251A4A013B05FB0323E4
S2140066F090F80F801B7B424629F097FDB84505466B
S21400670001D1FF281FD13A463146204694F89030F2
S21400671029F08BFD2F460546552212216078A4F8F5
S2140067205C6029F099FCFF2F03D039462046FFF71E
S214006730A9FFFF2D09D029462046BDE8F04129F0E3
S214006740B4BDFF25DFE70746E6E7BDE8F08100BFFA
S214006750DE5A00209018002041688268C978D278F6
S21400676049B112B10321FFF7AFBF837B002B0CBFEB
S21400677001210221F7E72AB1837B002B0CBF0221FF
S2140067800121F0E7014813F0FFBD00BF2AAF030068
S214006790037BD3B14368DA7812B18268D278A2B9A3
S2140067A01B7933B1837B002B0CBF04210521FFF737
S2140067B08BBF83681B792BB1837B002B0CBF052115
S2140067C00421F4E7014813F0DFBD70475CAF030017
S2140067D0084A437B05211370837B5370C37B9370F9
S2140067E0037CD370037B137100780E30C0B2FFF7C2
S2140067F0FBBA00BFF75A002038B5044600780C4DA7
S2140068000E302A460521C0B2FFF7DEFA20B1BDE8F9
S2140068103840084813F0B8BD2B7863736B78A373C1
S214006820AB78E373EB7823742B79237338BD00BF02
S214006830F75A002098AF0300024B53F8200029F0C7
S2140068407EBD00BFDC320020F8B504460B78424A15
S21400685043700D4642F82300404E29F08EFDFFF7A8
S214006860CBFF6268A3683E483E49D6641165D4658E
S2140068705065C3E91410DE64DC654FF09873022699
S2140068806361012304F10C01E16137491032216292
S21400689004F10D01A16235492376E16204F10E018F
S2140068A06163334984F82430A16304F10F01216445
S2140068B0304984F83030616404F11001E1642E49F7
S2140068C084F83C3084F84830216584F85460A2652A
S2140068D0E879A96800EB400201EB820704F1140C8A
S2140068E0C7F804C04FF4817C244F41F82270C218C8
S2140068F0D2B202EB420241F822C001EB820700222C
S2140069007A601F4A84F8703022661E4A84F88830FF
S214006910A2661D4A1D4BE2661D4AC4F88C306267AB
S2140069201C4A8319A26704F15C02C4F88020DBB21B
S214006930194A03EB4303C4F8842084F8646084F89F
S2140069407C6001EB830260345460144A033041F8E3
S2140069502320E871F8BD00BFDC3200205967000034
S21400696001030300916700000100200102001001EE
S21400697003003001040030010500210101FC01067E
S2140069804A002100FC49040051001000FE490400A2
S214006990FF490400550021006F0018001200010492
S2140069A070B50D460646144613460A4601461A4872
S2140069B013F0EAFC25B92046BDE87040FFF73CBC62
S2140069C0072D05D121463046BDE8704000F0C4BC16
S2140069D04FF601439D4205D121463046BDE8704042
S2140069E0FFF72ABF062D05D121463046BDE8704088
S2140069F000F066BAB5F5817F05D121463046BDE880
S214006A007040FFF7B9BD202D04D12046BDE8704088
S214006A1000F0ECB870BD00BFC7AF03000148FFF739
S214006A2049BB00BFA16900004FF4C01330B5036036
S214006A3001230371074B8C688360CA7902EB42031B
S214006A4004EB83056860044844F82300531CCB71AC
S214006A5030BD00BF004A0400040001010368064A76
S214006A600C211360436853600389138143892220F5
S214006A705381FFF7B9B900BF0433002010B503688F
S214006A80044686B0FBB1114813F07EFCA37B104A87
S214006A908DF804304FF48273ADF806300123CDE94B
S214006AA00223002301A804938DF81430FFF762FB3D
S214006AB02046618929F071FC2046FA2150F8143BE3
S214006AC0594329F083FA06B010BD00BFFAAF0300A1
S214006AD02000000110B5064C236843B1054813F0AA
S214006AE053FC2068BDE81040418929F056BC10BD13
S214006AF0103300201BB0030070B5364910460C68F2
S214006B00BDF81020002C5ED003285CD8DFE800F02B
S214006B10021E2745002B5AD0022A58D91D78B3F8F2
S214006B200160291E18BF012132462B4813F02CFCA9
S214006B302DB13146204629F030FC002070BDE573AB
S214006B40FA206368584329F0C8FAF6E7234813F09A
S214006B501BFCE37B002B38D00023E373F0E7002B0D
S214006B6035D0032A33D91D681D48294613F00CFC7E
S214006B701C4B2A1F9A4201D90220DFE723680BB17B
S214006B809D42F9D823899D42F6D3E37B6560B3B96D
S214006B90FA20684329F0A1FA11E0002BCED0012A92
S214006BA0CCD91D881048294613F0EEFB002DE3D003
S214006BB063689D42E0D8E37B2581002BE8D1204620
S214006BC0FFF74CFFB9E70120B8E70420B6E703203B
S214006BD0B4E700BF103300203EB0030075B00300DA
S214006BE094B00300FCFF6D00BFB0030038B5154B32
S214006BF01C6834B3F0B92168134813F0C5FB23684A
S214006C003BB16268934204D2104813F0BDFB636840
S214006C10236004F11405284629F0DDF9236823B122
S214006C20FA212846594329F0D1F92046BDE83840D4
S214006C30FFF714BF032804D16189054813F0A4FBAD
S214006C40F3E738BD10330020EAB0030018B10300A4
S214006C504DB1030070B53E4B0D46044609781860EA
S214006C60002A6FD101231A46A1730021E173012186
S214006C70A1814FF46151C4E900132823354E2281C7
S214006C800C21324622206381FFF79EF860B9D6E9D0
S214006C9000230AB19A4207D3318999429FBFC4E9BB
S214006CA000237389218163812B4B2C4AE3630423E1
S214006CB084F8403084F84C30E3182365284BA264EF
S214006CC06365022304F10802E265264A84F8583018
S214006CD0226604F10A02A266234A84F8643084F825
S214006CE0703004F10C03E26663676464EA79A868AE
S214006CF002EB420300EB830104F13C064E601B4EA0
S214006D0040F82360FA261A4B1A488B60531CEB7126
S214006D10FFF7D6F9208904F11405704329F0DDF950
S214006D206189204629F039FB134B2846C4E905340F
S214006D30FFF7A0F8216849B128467143BDE87040C6
S214006D4029F044B94FF4F07302228DE770BD00BFFE
S214006D50103300200433002000002301010023002C
S214006D600200210003002101FDFF21002000010593
S214006D70F96A0000D56A00007D6A0000134B10B562
S214006D801C680CB3E37BEBB129F029F92369C01A20
S214006D90002809DB0E4813F0F7FA0023FA20E37305
S214006DA06368584329F099F9E37B5BB12489FA2399
S214006DB05C4329F09DF9A04206D02046BDE810406D
S214006DC029F08BB96468F2E710BD00BF10330020CD
S214006DD07AB1030038B50024044D55F8040B08B109
S214006DE029F0EEFA01340A2CF7D138BD143300200E
S214006DF0042908B50AD172B16BB113781BB929F012
S214006E000AFB002008BD29F0FCFAFAE7034813F055
S214006E10BBFA0120F6E70320F4E700BFB4B1030095
S214006E2010B4054C114654F820001A46BDF804303C
S214006E305DF8044BFFF7DCBF14330020022902463E
S214006E4008B50ED004D839B9104629F0E4FA06E0A1
S214006E504029F9D0412907D1104629F0D2FA00205E
S214006E6008BD29F0E2FAFAE7024813F08DFA01208D
S214006E70F6E700BFD4B1030010B4054C114654F831
S214006E8020001A46BDF804305DF8044BFFF7D6BF65
S214006E9014330020426B094B52791A7082785A706C
S214006EA0C2789A70826B12B190F83C20DA70007843
S214006EB004210930014AC0B2FEF796BFFC5A0020F2
S214006EC0024B53F8200029F0CCBA00BF1433002040
S214006ED038B504460078084D09302A460421C0B269
S214006EE0FEF772FF30B96B78A370AB78E370EB787F
S214006EF084F83C3038BD00BFFC5A002038B5044644
S214006F000078114D09302A460421C0B2FEF75CFF16
S214006F10C8B9A3782A78022B0CD004D863B92046C7
S214006F2029F079FA01E0FF2B0AD02046BDE8384068
S214006F3029F046BA002AF2D1204629F062FAF4E790
S214006F40002AF9D1EBE738BDFC5A0020F8B5044614
S214006F500B78284A0D4642F823004370FFF7B8FF27
S214006F60636B254A5C631A632046FFF7C7FF20461B
S214006F7029F026FA4FF4801363600123626BA66B38
S214006F800532E2601D4A23722261A21C2375A261AB
S214006F9066B11B4A84F82030E261E21C6262194A3C
S214006FA084F82C3004F13C03A26223630627EA79B6
S214006FB0A96802EB4203002E21F8237001EB830040
S214006FC00CBF02230423C370012383700E4B0434CA
S214006FD08360531C4460DBB20C4C03EB430341F864
S214006FE0234001EB830000234360094B0232836099
S214006FF0EA71F8BD143300203F040300034030015B
S21400700001FF300102FF1001796E00000800010048
S214007010216E000028B1034B1B78834234BF00204A
S21400702001207047E05A002070B500250A4C0B4E30
S2140070303378AB4200DC70BDD4F8A42042B123798B
S2140070401BB16079FFF7E6FF10B9104628F0AAFEDC
S2140070500135A834ECE700BF9C1C0020E15A002054
S21400706008B5427901461046FFF7D4FFA8B1CB78A1
S2140070700A48013A042B00EB82100ED8012B08D8E0
S2140070801BB9BDE8084029F0BCB9BDE8084029F0A6
S214007090C2B9BDE8084029F0C8B908BD9C1B00204D
S2140070A008B5427901461046FFF7B4FFA8B1CB7881
S2140070B00A48013A042B00EB82100ED8012B08D8A0
S2140070C01BB9BDE8084029F0A6B9BDE8084029F07C
S2140070D098B9BDE8084029F0A8B908BD9C1B002057
S2140070E010B586B00446FFF70DF8012830D1E278D7
S2140070F0042A2DD8DFE802F0133234030300617946
S2140071000846FFF787FF58B31648032A00EB81109E
S21400711050F80C3C58791DD1003818BF0120637810
S2140071204FF480728DF804304FF48273ADF8063059
S2140071300623ADF8083001238DF80B3000238DF8B8
S2140071400A0001A8CDE903238DF81430FFF712F8E2
S21400715006B010BDB0FA80F04009E0E70020DEE798
S2140071600220DCE79C1B002010B586B00446FEF724
S214007170C9FF012830D1E278042A2DD8DFE802F0D2
S21400718013133203030061790846FFF743FF48B341
S2140071901548032A00EB811050F80C3C5B791DD192
S2140071A01A1E18BF012263788DF80A208DF8043065
S2140071B04FF48273ADF806300623ADF8083001238D
S2140071C04FF480728DF80B30002301A8CDE903231D
S2140071D08DF81430FEF7CEFF06B010BDB3FA83F27A
S2140071E05209E0E70222DEE79C1B002010B586B0BD
S2140071F00446FEF787FF012812D16378094A8DF806
S21400720004304FF48273ADF806304FF48073CDE946
S2140072100223002301A804938DF81430FEF7AAFF7A
S21400722006B010BD0800070110B586B00446FEF78C
S21400723069FF012820D16278104B8DF804204FF4A6
S214007240827294F8A01094F8A10059701870ADF8E6
S214007250062004934FF480720223094901A88DF892
S2140072601430CDE90212FEF785FF94F8A130013BF9
S21400727018BF012384F8A13006B010BD005B0020C3
S2140072800800050110B58378044603B30379022B82
S2140072900AD142791046FFF7BDFE28B10C48013AE4
S2140072A000EB821029F0C1F8A379022B02D1204608
S2140072B0FFF716FF2046FFF7B7FF02236078A4F813
S2140072C06C305522BDE81040122128F0C5BE10BD16
S2140072D09C1B00204388094A08211380838853801A
S2140072E083681B8A938090F8A03093718379D3715A
S2140072F000780430C0B2FEF777BD00BFEA55002024
S21400730038B50D4604460178114813F03DF84FF69F
S21400731002739D420ED10F4B1B782BB9637120462A
S214007320BDE83840FFF7D6BF62790AB19342F6D27D
S2140073300123F3E7B5F57F4FF1D1204629F00EF98A
S214007340A378022B0CBF01220022A3689A70E6E7FE
S214007350F0B10300E05A0020024B53F82000FFF77C
S214007360CFBF00BF3C33002038B504460078144D2C
S21400737004302A460821C0B2FEF726FD20B1BDE83B
S2140073803840104813F000B82B8863806B88E97883
S214007390A380AA88A3681A82AB7984F8A030EB7918
S2140073A0A371094B1B780BB9637138BD09B19942BB
S2140073B0FBD9064812F0E8FF23780133F4E700BF54
S2140073C0EA5500200AB20300E05A002033B2030058
S2140073D0F8B504460B78474A0D4642F8230043703A
S2140073E0FFF7C2FFA268444BD465D364434B022622
S2140073F05365434BA11C13654FF44013E360012310
S2140074006161E1623F49103221632265211D3E4AD7
S214007410A1633E483E49626504F1A002A061E163B3
S214007420E265E01C611D3B4A206261643A483B49C4
S2140074302266A21D2374237784F8283084F834301B
S21400744084F84030A16484F84C6084F8583084F89E
S21400745064306062A266E879AA6800EB400102EB3D
S214007460810704F10C0CC7F804C04FF0060C2C4F33
S21400747042F82170C118C9B201EB410142F821C09F
S21400748002EB810700217960264F84F88030276759
S214007490254F84F89830A767244F254BE767254F7C
S2140074A084F8746084F88C60C4F89C3004F16C0630
S2140074B0831CC4F88470C4F890601F4F1F4EDBB264
S2140074C003EB4303C4F89460C4F8887002EB8306A9
S2140074D07034746008261A4C42F82340C31CDBB292
S2140074E003EB430302EB8304043042F8236061603D
S2140074F0E871F8BD3C330020B3040300FD0403002C
S2140075008572000001FF300104FF200110003001E9
S21400751002FF200105FF300100FF300103FF2101BB
S214007520070001084A002100024A0400510010002A
S214007530044A0400054A0400550021006F001800A4
S2140075401200010400239B6AB3F5804F03D219682A
S214007550064A914203D000230370836070470122DD
S21400756002709A689B694260F7E700BF07B0CD5E7D
S214007570024B034A1A602AF015BC00BF0000002028
S21400758002020FF073B53F4B04461A781AB1022276
S2140075901A7002B070BDCDE900220028F9D001268D
S2140075A01E7032F08BFF384D384B186017F0CEFC4B
S2140075B02B785BB902F0F2F940B935480823354A12
S2140075C03549006801F038FE00B92E70334B5A6812
S2140075D0E260334A9A601A6E22605A6E6260D3F88E
S2140075E07021A2601B6E5C042CD52E4AD368D80787
S2140075F0FCD42D4B1A68531C29D04FF480139340AB
S2140076002A4A13660423294C4FF0804223664FF41F
S21400761080632366102323664FF400536846236670
S21400762001A92266636628F0B1FF009B2366019BD2
S21400763063662B78002BACD0164B1A6822665B6804
S2140076406366A6E71A4AD368D907FCD4D1E7194B74
S2140076501B78002BD6D1184B5A68144B12B94FF42E
S21400766080121A66154A526812B94FF400121A664A
S214007670134B5B68002BC5D14FF480020B4B1A6688
S214007680C0E700BF035B0020045B002074330020CB
S2140076901C6500207833002000710800008000443C
S2140076A055CEAC0000000440E86400200090004482
S2140076B000000450025B00200080055000C005500A
S2140076C00000065038B5224D04462B78012B02D018
S2140076D001232B7038BD0028FCD028F07CFF013039
S2140076E009D028F078FF40F20113984203D0194AD7
S2140076F0D368DB07FCD42268174B1A6662685A66A2
S214007700A268C3F87021E268D40744BF00229A60DA
S214007710124B1A68013213D1114A127882B91149F4
S2140077204968C80748BF1A600F4A5268D10744BF65
S21400773001221A600D4A5268D20744BF02221A601C
S21400774017F00CFC0A4B186832F0B3FE0023C0E7B3
S214007750035B00200000044000800044E864002032
S214007760025B00200080055000C005500000065057
S2140077707433002070B50024A36AB3F5804F23D27B
S2140077801A68134B9A421FD1124E337813F0FD0538
S21400779018D14FF480341048FFF7F4FE032004F0AD
S2140077A04FFC0E4B0320DC6004F02EFC0C4B1C61DF
S2140077B0AB6ADB69984704460748FFF783FF0CB9B6
S2140077C001233370204670BD4FF48174FAE700BF82
S2140077D007B0CD5E025B00206433002000A00044AA
S2140077E00090004413B5204B1B7803B9FEE7002336
S2140077F01E4CCDE900336A4608231D49206801F077
S2140078001BFDF8B91B4AD2F84031D2F840211F2B95
S2140078104FF0010311D9203A9340019A1A4301927E
S21400782008236A461249206801F08EFE124B134A5E
S2140078301A602AF0B7FA02B010BD9340009A1A43B5
S2140078400092EDE72D28F1D10A4AD2F84031D2F85D
S21400785040211F2B4FF0010385BF203A93409340F1
S214007860019398BF0093DBE7035B00201C650020B4
S2140078700071080000800044000000200B020FF09A
S21400788038B50025AB6A0446B3F5804F10D21B6BA3
S214007890B3F5804F0CD20748FFF774FEAB6A20465C
S2140078A01B6B5B689847BDE838400248FFF70ABF85
S2140078B038BD00BF8033002013B50024A36A0190B2
S2140078C0B3F5804F13D21B6BB3F5804F0FD2094828
S2140078D0FFF758FEA36A01211B6B01A89B69984716
S2140078E004460448FFF7EEFE204602B010BD4FF4F3
S2140078F08174F9E78033002070B50026B36A044629
S214007900B3F5804F0D4612D21B6BB3F5804F0ED2E7
S2140079100848FFF737FEB36A20461B6B29469B696B
S214007920984704460348FFF7CDFE204670BD4FF447
S2140079308174FAE78033002070B50026B36A0446E7
S214007940B3F5804F0D4612D21B6BB3F5804F0ED2A7
S2140079500848FFF717FEB36A20461B6B2946DB690B
S214007960984704460348FFF7ADFE204670BD4FF427
S2140079708174FAE780330020F8B50027BB6A044616
S214007980B3F5804F0D46164611D21B6B7BB10948E6
S214007990FFF7F8FDBB6A20461B6B324629465B6A3A
S2140079A0984704460348FFF78DFE2046F8BD4FF47F
S2140079B00174FAE78033002070B50026B36A0446E7
S2140079C0B3F5804F0D4612D21B6BB3F5804F0ED227
S2140079D00848FFF7D7FDB36A20461B6B29469B6A0B
S2140079E0984704460348FFF76DFE204670BD4FF4E7
S2140079F00174FAE780330020F0B50027BB6A04461E
S214007A00B3F5804F0D461646ADF5337D20D21B6B81
S214007A10B3F5804F1CD21048FFF7B4FDBB6A204672
S214007A201B6B40F2C1225B6A01A99847044630B13D
S214007A300948FFF747FE20460DF5337DF0BD836A03
S214007A4032461B6B2946DB6A01A898470446EFE7D7
S214007A504FF40174EFE700BF8033002010B5002418
S214007A60A36AB3F5804F10D21B6BB3F5804F0CD2D0
S214007A700748FFF787FDA36A1B6B1B6B98470446F6
S214007A800348FFF71FFE204610BD0124FBE700BF9A
S214007A9080330020F0B58FB0044601A80E46154688
S214007AA0FFF7EEFE9DF80C30012B12D1B5F5402FF6
S214007AB027D8B4F5402F24D86319B3F5402F20D823
S214007AC021462A46304613F001FF002420460FB018
S214007AD0F0BD0027BB6AB3F5804F15D21B6BB3F51C
S214007AE0804F11D20A48FFF74DFDBB6A2A461B6B32
S214007AF0314620465B6B984704460548FFF7E2FD93
S214007B00E4E740F20244E1E740F20114DEE700BF9A
S214007B1080330020F0B58FB0044601A80E46154607
S214007B20FFF7AEFE9DF80C30012B1FD1B5F5402FA8
S214007B3006D8B4F5402F03D86319B3F5402F13D9F0
S214007B4040F2024420460FB0F0BDE258013225D183
S214007B5004339D42F9D82A463146204628F06BFD6C
S214007B600028EDD00024EDE70023F2E70027BB6AEB
S214007B70B3F5804F15D21B6BB3F5804F11D20A4870
S214007B80FFF700FDBB6A2A461B6B314620469B6BFF
S214007B90984704460448FFF795FDD3E740F20344B0
S214007BA0D0E740F20114CDE78033002070B58EB0E8
S214007BB0044601A80D46FFF763FE9DF80C30012B26
S214007BC022D144EA0503C3F30C03002B33D1B5F5E9
S214007BD0402F04D940F2024420460EB070BDB4F5E2
S214007BE0402FF7D82544B5F5402FF3D8204604F5A6
S214007BF0005428F019FDAC4202D00028F6D1E9E77F
S214007C000028E7D00024E7E70026B36AB3F5804FE4
S214007C1014D21B6BB3F5804F10D20A48FFF7B2FCA4
S214007C20B36A29461B6B2046DB6B9847044605481B
S214007C30FFF748FDD0E740F20444CDE740F20114D8
S214007C40CAE700BF80330020BFF34F8F0549064BBD
S214007C50CA6802F4E0621343CB60BFF34F8F00BFE5
S214007C60FDE700BF00ED00E00400FA0570B5D0B1F6
S214007C70C9B10E4E431E013913F8014F2046325D3E
S214007C8002F00302012A11F8012F08BF04F12000B8
S214007C90B55C05F00305012D08BF2032801A01D11E
S214007CA0002CE9D170BD0120FCE700BFDD710400A7
S214007CB00348044A0449121A921028F008BD00BF6F
S214007CC034410000D04200001C62002008B5154B6D
S214007CD083F30A8800F030F8FFF7EAFF124B1349E7
S214007CE08B4212D30020124B12498B4218D3FCF75A
S214007CF0F9FF186850F82240586840F822400132D0
S214007D0098688242F5D30C33EAE70022F8E71C684D
S214007D1044F8220001325C68A242F8D30833E4E754
S214007D200022F8E7080000207C96040088960400ED
S214007D308896040088960400124B134A70B59A6021
S214007D40D3F88820114D42F47002C3F888206FF0F3
S214007D50010205F50054226641F2FF7262660222B5
S214007D60C3F8D020BFF34F8FBFF36F8F4FF440366A
S214007D70032004F065F90320E66004F045F92E615F
S214007D8070BD00BF00ED00E0004000000080004431
S214007D90014B1860704700BFF0640020054B186068
S214007DA0054B1B6F03F00703032B01D130F0DEBC3D
S214007DB0704700BFF8640020008000502DE9F041B5
S214007DC004464FF001080C250D4E0CB9BDE8F081B5
S214007DD094FAA4F0B0FA80F00F2808FA00F2C8BFB0
S214007DE0103824EA0204CABF05FB006205FB0062E5
S214007DF0B4325768002FE8D09168C0B2B847E4E7BD
S214007E009033002008B50C4832F0F6FB192004F039
S214007E1009F928B1192004F013F9192004F0F4F830
S214007E201A2004F0FFF828B11A2004F009F91A20E5
S214007E3004F0EAF8002008BD684C04002DE9F04183
S214007E400E461746054618B30F2923D80378DBB12C
S214007E50013BDBB2022B19D8104AD35C6A78D340B8
S214007E60DB0717D50E4BD3F81043ACB932F026FB20
S214007E7080463A462846314602F042FE404632F0F8
S214007E8018FB2046BDE8F0817F23E7E70023E5E7FF
S214007E902224F6E72124F4E70224F2E7584A0400F5
S214007EA000C0035010B5044610B30378E3B1013B9D
S214007EB0DBB2022B1AD8104AD35C6278D340DB07B9
S214007EC018D532F0FBFA0122617823788A403021F7
S214007ED04B4341F2100103F1A04303F570335A50AF
S214007EE032F0E7FA002010BD7F23E6E70023E4E740
S214007EF02220F8E72120F6E7584A040010B5044689
S214007F0010B30378E3B1013BDBB2022B1AD8104A58
S214007F10D35C6278D340DB0718D532F0CFFA012263
S214007F20617823788A4030214B4342F2100103F1F6
S214007F30A04303F570335A5032F0BBFA002010BD50
S214007F407F23E6E70023E4E72220F8E72120F6E790
S214007F50584A040038B50D46044618B311B30378E2
S214007F60E3B1013BDBB2022B1AD8104AD35C62782D
S214007F70D340DB0718D532F0A1FA302223785343DA
S214007F8003F1A04303F570335B696278D34003F0D6
S214007F9001032B7032F08DFA002038BD7F23E6E710
S214007FA00023E4E72220F8E72120F6E7584A0400F9
S214007FB02DE9F0410D4616469846044600284FD057
S214007FC000294DD00178002940D04B1EDBB2022B91
S214007FD03ED8254AD25C6378DA40D20701D4FF291E
S214007FE040D1022E01D9042E3CD132F067FA237814
S214007FF00746FF2B05D032462046296802F0C6FD0C
S21400800028602B68013309D12378FF2B06D1174B44
S2140080106078D3F8241429F035F9286029684B1CB9
S21400802018D00C23124A03FB0122069BC2F80480D8
S21400803093602378FF2B04D001230E4A8B40C2F8AE
S2140080402434384632F035FA002007E07F22C2E7B3
S2140080500022C0E7384632F02CFA2D20BDE8F08129
S2140080602220FBE72120F9E7584A040000C003500D
S2140080709033002000D0035008B502F037FD044BC3
S21400808000F05530C3F82004BDE80840FFF796BE60
S21400809000E0035008B502F029FD044B00F0AA30BA
S2140080A0C3F82004BDE80840FFF788BE00E0035090
S2140080B02DE9F04F144605460E469B46C36B87B027
S2140080C001225B6902A960689847EB6B01225B6935
S2140080D003A93046984702A828F0F8FE074648B19C
S2140080E00023A37563754FF0FF33A360002007B02D
S2140080F0BDE8F08F03A828F0F6FE0123A375237EC3
S21400810004EBC303DE611F846368B3420ED12060B4
S21400811003A828F00AFF4FF0FF332075A360237DE5
S214008120043B022B26D80023A375DFE723681A1A20
S21400813053425341A37503A828F0F7FE237D8342DC
S21400814018BFA77503A828F0D2FE074602A828F095
S214008150CEFE874218BF002303A818BFA37528F0D9
S214008160CEFE074602A828F0CAFE87421CBF0023A0
S214008170A375D4E703A828F0BAFE80B1EB6B022201
S21400818030465B6904A9984704A828F0BFFE03465A
S214008190207D032839D8DFE800F03838040903A822
S2140081A0F3E7CC22237E04EBC3031A8401F06EFCB3
S2140081B0109B187003A8277E28F08DFE04EBC707D7
S2140081C087F82200237E03A804EBC303B3F82090AD
S2140081D093F8227028F08BFE804603A828F08FFEC6
S2140081E08246B8F1000F15D0EB6B022230465B6971
S2140081F004A9984704A828F04EFE6075637D6BB905
S2140082000023A3754FF0000838E0227E04EBC2027C
S2140082101384CBE703A828F029FEEEE794F816802F
S214008220B8F1000FEED0B9F1000F09D1DFB101238C
S214008230E375637E002B4FD1012F42D1677614E0A1
S2140082406B6C06EB0A015A4286EA010010421CBF1C
S2140082500022A2755A1E0A409B1A9945D0D8A37DC3
S214008260002BE3D1CEE7E37D43B94FF000084B4641
S21400827052463146284628F074FBA060A27D12B113
S21400828023694B4423611A49237E097899422AD9E7
S21400829001332376BBF1000F27D032B3E37D23B33F
S2140082A0B8F1000F21D1032F1FD0A1684B1C1CD0A2
S2140082B0109B2246009328460123FFF7F9FEA0757F
S2140082C013E095F8343063B9EB6A0133CFD1032F4E
S2140082D0CDD10123A376C8E7012FCFD0032FC4D179
S2140082E0F7E79846C3E70023A375A07DFFE600BF27
S2140082F07C4A04002DE9F04F0E46984600238BB0CA
S21400830004464FF0FF31104617468DF8133001F043
S214008310A7FBB6F5801F20D2314605AA04F1080057
S21400832028F026FD451C014603D1237CBBB92D2031
S21400833010E0384601F094FB0122394620460DF144
S214008340130328F060FB0028EFD09DF8133088F860
S214008350003000200BB0BDE8F08FB01CE5D1E56A18
S214008360691C36D12046616A28F041FA0546B31CDE
S21400837018BF0123DFF8CC900193636A626C029306
S214008380236805A902FB053AE36B05225B695046A4
S214008390984705A828F035FE28F058FE504628F0E5
S2140083A060FE4FF0000B824601464B1C05D0636C06
S2140083B081EA0A025B42134211D02946204628F081
S2140083C016FA029BAB422CD0BBF1000F2CD105460F
S2140083D0D3E72368ED1A636CB5FBF3F5C7E74846A9
S2140083E001F03EFB0DF1130349462046019A28F0A2
S2140083F00AFB034690B1B21C03D0D9F80020B24263
S2140084000CD19DF8132003930D4B88F800204946A5
S2140084101A68384613F05AFA039B9B46D9F8081098
S214008420C3E7BBF1000F82D0B6F5801F91D231466C
S21400843098F800307A6804F1080001F03FFA88E7FF
S214008440784A04006C3B00202DE9F34104461746A9
S21400845098460E46184D816AE36A8B4201D04B1C43
S21400846002D102B0BDE8F081284601F0F9FA0122F7
S214008470294620460DF1070328F0C5FA38B14346D1
S214008480294620469DF80720B8470028E9D0A96865
S2140084904A1C04D16968204628F036FA0146012EA7
S2140084A0DAD16B6881EA0302636C5B421A4218BF3A
S2140084B04FF0FF31D0E700BF403B00202DE9F04FE2
S2140084C04FF0FF334FF6FF720025044600F1080612
S2140084D0C0E909238BB0C36205620563304688464F
S2140084E028F017FC204628F052F960BB204641468B
S2140084F028F0CDF9204628F04AF960BB5E200BB084
S214008500BDE8F08F2368E26B606C576900FB0530AE
S214008510052205A9B84705A828F073FD01280746D7
S2140085200CD12946204628F083F9012F024600D1B7
S21400853001322946204628F049F903E028F08BFD51
S2140085400028EED10135E3699D42DBD3204628F0B2
S2140085501EF90028CAD000254FF0FF394FF6FF73EA
S214008560CA46A846C4E90853E36998450AD3A5EB6A
S2140085700905012D2CD84FF6FF72636A93423CD151
S2140085806720BCE72368E26B606C576900FB083025
S214008590052205A9B84705A828F033FD834605A897
S2140085A028F006FD0746584628F050FD68B15745A6
S2140085B038BFC4F82480B94528BFB946BD4238BF85
S2140085C03D46BA46236A0133236208F10108CBE729
S2140085D04FF6FF7300256362E3699D42CBD2676C5A
S2140085E02068E36B052207FB05005B6905A9984731
S2140085F005A828F0DDFC0135EEE7E26B676C206825
S214008600694607FB030055690522A847684628F017
S214008610CFFC626A2368606C4B4D00FB023028F08A
S21400862020FD4FF0FF33A062E3622A466FF001019F
S214008630204605ABFFF75EFE002846D1AD6829460A
S2140086402046E56228F07FF8206320B92046E16ADC
S21400865028F05AF9E0622946204628F055F90546E2
S214008660A36A9D4233D1204628F040F80027804672
S214008670B946E36999453CD3B84559D92046616A5D
S21400868028F0B5F80026054604F1400AB74212D88D
S214008690626C2368694602FB0539E36B05225B6959
S2140086A048469847684628F083FC534602464946A3
S2140086B0E06B28F0D8FC2946204628F098F80136CA
S2140086C0B0450546E2D1642019E7A56AB7E7294612
S2140086D0204628F038F8236B2946034407462363D0
S2140086E0204628F011F90546002FB9D1C4E90B073A
S2140086F0B6E7636C2568052203FB0955E36B05A9FD
S2140087005B692846984705A828F07BFC28F09EFC65
S21400871058B1284628F0A5FC0146204628F013F854
S214008720636C143B984208BF013709F10109A0E7C2
S214008730304628F0EEFA002320461946034AFFF793
S21400874083FE0020DBE600BF983B0020F50903000F
S2140087502DE9F041036B9046826B07689A4288BF0A
S2140087608363426C436A90B002FB0377C36B0E468A
S214008770052201A95B6904463846984701A828F0F7
S21400878040FC01280146307057D0656CE26B2368C8
S214008790606AD2F814C005FB0030052206A9E0473F
S2140087A006A828F02EFC01284FF0000523D0D4E9B7
S2140087B00A3201219342CDE90B458DF834800E959F
S2140087C08DF83C102AD11946204628F09DF8236BD8
S2140087D0626C14339B1AE06223630C9B53B99DF8BA
S2140087E03C303BB1626A616C2368E06B01FB02318E
S2140087F028F0BFFB0C9DE36B05225B6901A9384698
S214008800984701A828F0FDFB30702846236BA26B22
S2140088109A4288BFA36310B0BDE8F081237C33B9C9
S2140088201C490BAA04F1080001F096F8D5E720468B
S214008830194A0BABFFF708FECFE7237C23BB224683
S214008840164904F1080001F087F8616A204627F00F
S214008850EFFF616A421C204627F0B8FF054620B9A4
S214008860236B626C1344143B23632046A16A28F0F2
S2140088704BF82368A062C01A636CB0FBF3F060622A
S214008880204628F084F8B6E700232046044AFFF77F
S214008890DBFDDAE7F58F0000718F00008F0A03001A
S2140088A02B0A030073B50D46D11E4A421C461B7E9A
S2140088B04A419A4226D129682368994222D363689E
S2140088C099421FD8114E0DF107033246FFF712FDED
S2140088D0C0B972686B689A4214D19DF80730DA1EE8
S2140088E053425341227E93420CD163690133636144
S2140088F0D4E90323934205D22968A26842F82310DC
S21400890001332361012002B070BD00BF983B0020F8
S2140089102DE9F04F9B4689B09DF848309046514A65
S2140089200193136907465B450D46C0F09580D9460E
S21400893053680093B9F1000F7BD0FB6B01225B6993
S21400894005A90098984705A828F0CDFA454B1B685E
S214008950984240F0848005A828F0D1FA04280646FC
S21400896015D105A828F0D2FA009B04461E44019BA8
S214008970002B3ED1804512D91C46A8EB000838468D
S214008980009927F0C1FFA9EB04090090D2E7FB6B22
S21400899002225B69009806A9984706A8E2E7A0EBC2
S2140089A008045C4528BF5C46032C4644ABEB040B2E
S2140089B01DD9FB6B294630465B69A208984724F010
S2140089C0030304F0030A1E441D44DDF80480BAF1D4
S2140089D0000FD4D0FB6B012206A930465B6998478E
S2140089E05246284606A912F071FF5544C7E7A2462C
S2140089F0EBE7824600F0030302932B18039306442A
S214008A00039BA6EB0A00A3EB0A05029B9A4514D12A
S214008A10BAF1000FB3D0FB6B012206A95B69984739
S214008A205246284606A913F00DF90028DDD04FF06F
S214008A303609484609B0BDE8F08FFB6B012206A94F
S214008A405B6998470422284606A913F0FBF800281D
S214008A50EDD1AAF1040AD3E74FF06309E9E74FF036
S214008A606F09E6E7C43B00202DE9F0410F461646A5
S214008A709846044688B060B390F83450FDB10121A2
S214008A8027F07AFE00210E9BCDE90511CDE90237CD
S214008A909DF83C30CDF804808DF81C30237C04967D
S214008AA08BB90D4901AA04F1080000F055FFDDE975
S214008AB00553E06B002E08BF1D4627F0F6FF28463C
S214008AC008B0BDE8F0812046044A01ABFFF7BCFCC5
S214008AD0EDE70546F3E700BF590A0300A588000046
S214008AE07FB590F84260044601920DF10B030A46EA
S214008AF03046114927F0E1FF012E0546E36B17D1FA
S214008B0032465B6903A998479DF80B10039B019AB0
S214008B1059B19BB243EA0243012228460393E36B12
S214008B2003A99B69984704B070BD62F30F03F3E78F
S214008B3001229B6901A9F5E7C43B00202DE9F04F0F
S214008B4099B00E460D920A69416C0B931439D31DE9
S214008B50B3FBF1F3013302EBC302036B044693420B
S214008B60C0F001820023DFF804940893E36A4846C5
S214008B701946059300F074FFD6E9033707930B9B5D
S214008B80022B4DD1CC2F40F0D7810D9B3BB1314607
S214008B90204627F0E8FF656C1490012044E0012091
S214008BA0079B656C1B68149300F0010000280CBF3F
S214008BB004230823782F0E9349D8059A6B1E13407A
S214008BC0ED1A3B1D9D423CD2002F3DD0082D3ED8CD
S214008BD00023042506934FF0040A336806990B9881
S214008BE0C9F80030C9F8107028F0A3F94FEA9A03C4
S214008BF00F93059B89F814000393002309930C93A5
S214008C0004930A93616C039B4A1E1A408B1A27B37F
S214008C105544AB4223D8236B5B1A134423632FE1DE
S214008C20782F656CB9D8F07D0D9B002BBCD0E36B1C
S214008C3001225B69706816A9984716A828F057F9AC
S214008C40B4E700250695C6E704250697C3E7012383
S214008C5000254FF0080A0693BFE75345DBD3A3EB86
S214008C600A029742039BB84628BF90469742534451
S214008C7028D90122D9F8101089F817208F4226D15A
S214008C800399C9F80410049299F817200AB399F8C2
S214008C9018100398CA1C09EBC202506004980131F0
S214008CA0A2F80880907289F81810B8F1000F07D063
S214008CB00B9A022A40F08180099A72B10122099229
S214008CC09B46ABE0049A002A18BF0322DBE7022289
S214008CD0D9E7039AC9F80420E7E70C9A4244032A26
S214008CE0EED9E26B1846956914A901220993A847A4
S214008CF0099B05460028E1D03D2D40F01E8104F179
S214008D00080303932368059A606CA2EB030ABAFB78
S214008D10F0FA00FB0A3028F0A4F9E16A8046204603
S214008D2027F0F2FDA26A824200F00F81626CD9F849
S214008D300830511E0B40216B2768891A0B442363A9
S214008D40089BE062DF1BB7FBF2F7BA4540F0FA80FB
S214008D50059BB3EB080A12D0E36B4FEA9A02414632
S214008D609B6998478346E36A059A5344E362236BFC
S214008D7003989B1A4344236327F0CBFFDA46236805
S214008D80616CE06B01FB073128F0E0F8204627F025
S214008D90FEFC204627F0FBFD2063BAF1000F00F032
S214008DA0D4803269616CD31D1439B3FBF1F30133FF
S214008DB002EBC3029042A5D2BFE00D9A002A77D1FB
S214008DC0B8F1030F4FEA98026ED9E16B18468D6929
S214008DD007991093A847109B0546C0B918F00305DD
S214008DE015D0079A28F0030B02EB0B019B444FF0BB
S214008DF0FF3215A815922A46109312F067FDE26B13
S214008E005846956915A90122A8470546109B9B461A
S214008E10079A42440792002D40F08B80049B16A8C8
S214008E200193069B009399F814204346316800F09E
S214008E30CDFDE36B0F9A9B69039816A99847039A92
S214008E40051E089B18BF1346089343465246204605
S214008E50039927F086FD236B08F10302A3EB0A03B0
S214008E6022F003029B1AC9F808002363002D7FF442
S214008E7043AF0C9BA7EB080743440C93CDF80CB00C
S214008E802046039927F040FD00250390002F7FF42D
S214008E90B9AE364A3168936804F10800E362526856
S214008EA00B9B00F00BFD49E09B46454607999EE765
S214008EB09B4606F120021092F27D7068A2B1002255
S214008EC096F818C00A99D5B2AC4511D9109D02F192
S214008ED0010E35F832508D4228D90E9806EBC202A4
S214008EE00144D069084403E00E9A0A990A441044E3
S214008EF0E26B15A9556901221193A847159A0A9B9A
S214008F001392E26B043395695846012213A90A931B
S214008F10A847119B054603EB0802A2EB0B02042AA6
S214008F207FF679AF28B90BF1040BC5E77246491BEB
S214008F30C9E7CDF820B088E770252F46384619B027
S214008F40BDE8F08F4FF0000A19E73269616CD31D57
S214008F501439B3FBF1F3013302EBC302236B9342E4
S214008F60BFF404AEE9E71C27E8E700BF6C3B00202F
S214008F70032A2DE9F34106460D4617461C4606D140
S214008F80237A012B23D0012002B0BDE8F081DFF860
S214008F906080096842460DF10703FFF7ABF9606091
S214008FA00028EDD19DF80720237A032AE8D0D8F8C8
S214008FB004106A689142E3D1012B2969D4F80CC0E9
S214008FC007D172690CEB0103934202D92074207C0E
S214008FD0DAE708316144E1603B4601222946304623
S214008FE0FFF7ACFD60600028CAD00020CCE700BFC9
S214008FF0983B00202DE9F341089C032A1746266873
S21400900006D1237A012B24D0012002B0BDE8F081DE
S214009010DFF89080304642460DF10703FFF76AF905
S21400902060600028EDD12568D8F80400A96AD5F854
S21400903044C04840CCF100031840227AE1D1012A0E
S21400904009D1E268D8F8103013447269934202D905
S2140090502074207CD9E72868EB6A1B1A081AB3FB31
S214009060FCF3B0FBFCF083420BD1706CF36A421E3B
S2140090701340326B121A13442846336327F044FC1D
S214009080E862D8F81020E36808321344E36001224F
S2140090903B4604492068FFF751FD60600028B0D0C9
S2140090A00020B2E7983B00202DE9F0410025604BF8
S2140090B00E46D3F8008004461D6018B921252846C0
S2140090C0BDE8F08190F8347007B30A6803689A42E6
S2140090D040F0A3804A6843689A4240F09E808A68BF
S2140090E083689A4240F09980CA68C3689A4240F002
S2140090F094800A6943699A4240F08F808A69C36BFC
S2140091009A4240F08A804B698361D8E768223946E4
S214009110856B12F04BFAD6E90212336804F10800A8
S21400912023607368A5636360336963617369A361D1
S21400913027F001FEB36904F14000E3639B6898479B
S21400914020B9676C17B16368B3FBF7F794F8433040
S214009150E761002BB2D00023656C2366002D64D037
S214009160002F62D02368B3FBF5F205FB1233002B09
S21400917055D16668B6FBF5F305FB1363002B4ED19D
S214009180204627F0D0FAA369043303449E4248D30E
S21400919040F634726369CC3B934244D8B5F5805FA1
S2140091A043D30321204627F0E7FAD4E90001E36B16
S2140091B01B6898470546E36B0220DB689847CDB9E5
S2140091C041462046FFF77AF96428054604D1414611
S2140091D02046FFF773F90546666C5DB9236A20469C
S2140091E0143E5E4327F09FFAA369043303449E426D
S2140091F038BF5A25002D0CBF0123002384F83430D5
S21400920007D1D4E900010B4A13680133136027F035
S2140092102CFEE06B27F049FC51E75D254FE759250A
S2140092204DE75A254BE75F2549E75B2547E700BF33
S214009230FC340020F83400202DE9FF410C46164689
S2140092401F46054680B390F834307BB3B1F5801FD7
S2140092502ED2DFF86080012127F08EFA21464246A2
S21400926028460DF10F03FFF745F8044670B99DF840
S2140092700F30012B11D1D8F81030BB4212D1024664
S214009280009031462846FFF743FB0446E86B27F07C
S2140092900CFC204604B0BDE8F081022B14BF2D2440
S2140092A06024F3E76324F1E72124F2E71124F0E7D2
S2140092B02924EEE7C43B00202DE9F04385B00C4698
S2140092C017461E460546DDF8308098B390F83430D1
S2140092D093B3B1F5801F31D2DFF86490012127F0F7
S2140092E04BFA21464A4628460DF10F03FFF702F8CF
S2140092F0044688B99DF80F30012B14D1D9F81020F8
S21400930006EB08039A4213D300904346324639468A
S2140093102846FFF7FDFA0446E86B27F0C6FB204612
S21400932005B0BDE8F083022B14BF2D246024F3E7BC
S2140093306324F1E72124F2E71124F0E72924EEE77D
S214009340C43B002073B50C461646054630B390F86D
S21400935034302BB3B1F5801F24D2012127F00CFA4C
S21400936021462846104A0DF10703FEF7C3FF0446C0
S21400937080B99DF80730032B0CD0022B0CD1284661
S214009380094927F0F0FB3060E86B27F08EFB20469B
S21400939002B070BD2D24F7E76124F5E72124F6E737
S2140093A01124F4E72924F2E7C43B00202DE9F34119
S2140093B01E4600230C4617460546336050B390F809
S2140093C034304BB3B1F5801F28D2DFF8548001212A
S2140093D027F0D2F92146424628460DF10703FEF74C
S2140093E089FF0446A0B99DF80730032B10D0022B46
S2140093F003BF01233B600423D8F8103018BF386041
S2140094003360E86B27F051FB204602B0BDE8F081E0
S2140094102D24F6E72124F7E71124F5E72924F3E7BE
S214009420C43B002073B50446056B27F07CF9636ED9
S21400943003449D422CBF00230123854294BF002590
S2140094402D1A207C84F85030656584F85800A8B141
S21400945000230C4E1A4619462046009627F047FC75
S214009460002305461A4619462046009627F048FC73
S214009470E3682844984294BF0020C01AE06502B012
S21400948070BD00BFFFFF0F002DE9F3471E4643697E
S2140094900446B342884617469DF828904ED30025CA
S2140094A08DF80750204627F03EF9D4F830A08245C4
S2140094B00AD2236AB5EB430F06D2002220460DF1EE
S2140094C00701FFF745F9B8B39DF80730012B05D122
S2140094D0002220460DF10701FFF73AF9B9F1030F14
S2140094E006D03146204627F00EF9256B854227D355
S2140094F0144D4FF0FF31284600F0B2FA4B4629468D
S21400950000222046C5E90376C5F80080FFF716FB63
S214009510236E054663B12046FFF784FF94F850306B
S21400952013B994F858301BB1236E04F150009847D5
S214009530284602B0BDE8F0870135B3E76225F7E7B5
S2140095401C25F5E7983B00202DE9FF410F46904685
S2140095501E46054698B390F8343093B3B1F5801F95
S21400956031D21A4C022127F007F9224639462846FE
S2140095700DF10F03FEF7BEFE024678B10123424608
S2140095800093394633462846FFF77EFF0446E86BCD
S21400959027F08BFA204604B0BDE8F0819DF80F3026
S2140095A0012BEBD12169B142E8D100934146334605
S2140095B02846FFF7ADF904460028DFD1E7E7212467
S2140095C0E8E71124E6E72924E4E700BFC43B0020CF
S2140095D02DE9F04790F8423086B0012B05460391FE
S2140095E0A1EB020740F0AA80FF2F03D81E464FF0DB
S2140095F0640807E00226012B14BF4FF032084FF034
S2140096006408013600244FF6FF79DFF844A195F888
S2140096104230012B14BF322364239C4202D35FFAEC
S21400962088F40DE005AB22465146284627F079FA25
S21400963095F84230012B059B34D14B452DD1E4B231
S21400964095F84230012B14BF32226422121BB2421C
S21400965017D3012E39D10022012B05978DF8132040
S21400966027D1082205A90DF1130027F016FD9DF855
S2140096701330059A42EA032221462846FFF730FABD
S21400968040B10223324900932846CC23096803AA36
S214009690FFF7FAFE06B0BDE8F087DBB203B9023486
S2140096A00134B4E7591CCAD09BB2002BF8D1013460
S2140096B0F6E7102205A90DF1130027F0EEFC9DF841
S2140096C01330059A42EA0342D6E7039A012B059225
S2140096D023D10823202205A90DF113008DF813309D
S2140096E027F0DBFC9DF81320120221462846FFF7E0
S2140096F0F7F995F84230611C012BC9B21AD100283F
S214009700BFD12846BDF81420FFF7EAF90028B8D1E3
S2140097100234BDF81620E1B2AFE71023202205A9D7
S2140097200DF113008DF8133027F0B7FC9DF81320C9
S2140097301204DAE70028A4D1059A9EE7B7F5803F21
S2140097404FF00106BFF457AF4FF032085AE700BF9C
S214009750C43B002070B586B00E4605460392A0B303
S21400976090F834309BB3B1F5801F32D2022127F037
S21400977003F831462846184A0DF11703FEF7BAFDDE
S214009780044618B99DF81730032B0ED10223314634
S21400979000932846CC2303AAFFF776FE0446E86B20
S2140097A027F083F9204606B070BD022B0BD10A497C
S2140097B0284627F0D8F9039902468142EFD028467A
S2140097C0FFF706FFEAE76124E9E72124EAE7112428
S2140097D0E8E72924E6E700BFC43B0020F7B50C46BF
S2140097E01646054668B390F8343063B3B1F5801F6B
S2140097F02BD2022126F0C0FF21462846144A0DF13E
S2140098000703FEF777FDC0B99DF80730032B14D089
S214009810022B14D10E49284627F0A5F9471C02460C
S21400982039462846FFF7D4FE044606B13760E86B93
S21400983027F03BF9204603B0F0BD2D24F7E761245E
S214009840F5E72124F6E71124F4E72924F2E700BF20
S214009850C43B002030B50C46054685B028B390F8CA
S214009860343023B3B1F5801F23D2022126F084FFC3
S2140098700DF10F03214628460F4AFEF73BFD03462F
S21400988088B99DF80F20032A0DD0032221460092A6
S21400989002462846FFF7F8FD0446E86B27F005F970
S2140098A0204605B030BD2D24F7E72124F8E7112423
S2140098B0F6E72924F4E700BFC43B00202DE9F04377
